:020000040800F2
:1000000050C40020B9A50008A9220008AB220008AE
:10001000AF220008B3220008B72200080000000049
:10002000000000000000000000000000BB220008EB
:10003000BD22000800000000BF220008C122000805
:10004000D3A50008D3A50008D3A50008317B00087C
:10005000D3A50008D3A50008D3A50008D3A50008A0
:10006000D3A50008D3A50008D3A50008D3A5000890
:10007000D3A50008D3A50008D3A50008D3A5000880
:10008000D3A50008D3A50008D3A50008D3A5000870
:10009000D3A50008D3A50008D3A50008D3A5000860
:1000A000D3A50008D3A50008D3A50008D3A5000850
:1000B00073A50008D3A50008D3A50008D3A50008A0
:1000C000D3A50008D3A50008D3A50008D3A5000830
:1000D000D3A50008E7A40008FF9F0008D3A50008E7
:1000E000D3A50008D3A50008D3A50008D3A5000810
:1000F000D3A50008D3A50008D3A50008D3A5000800
:10010000D3A50008D3A50008D3A50008D3A50008EF
:10011000D3A50008D3A50008D3A50008D3A50008DF
:10012000D3A50008D3A50008D3A50008D3A50008CF
:1001300000F002F800F0B0F80AA090E8000C824449
:100140008344AAF10107DA4501D100F0A5F8AFF226
:10015000090EBAE80F0013F0010F18BFFB1A43F0A5
:100160000103184788700100A87001000A444FF08D
:10017000000C10F8013B13F0070408BF10F8014B06
:100180001D1108BF10F8015B641E05D010F8016B4B
:10019000641E01F8016BF9D113F0080F1EBF10F8AF
:1001A000014BAD1C0C1B09D16D1E58BF01F801CBD2
:1001B000FAD505E014F8016B01F8016B6D1EF9D555
:1001C0009142D6D37047000000230024002500266A
:1001D000103A28BF78C1FBD8520728BF30C148BFAA
:1001E0000B6070476E2913F02A84702913F0338254
:1001F000662915F00A85652915F00785672915F028
:1002000004856129AFF3008003681B0A28BF41F011
:100210008001692913F0A481642913F0A181752953
:1002200013F09E816F2913F02A85782913F0FF813E
:10023000E92913F0C584E42913F0C284F52913F0E9
:10024000BF84EF2913F02785F82913F0FE81036896
:10025000DB0928BF41F08001632913F0348473293E
:1002600013F03984E32913F08387F32913F0888787
:10027000002070471FB513F0DDFF040000200021AF
:1002800014F0B6FC401C60600020002114F09AFCC1
:10029000E0601FBD10B510BD13F09EFF1146FFF7C3
:1002A000E9FF01F08DFC14F07BF803B4FFF7F2FFD7
:1002B00003BC0AF029F80000F0B591B0054600260D
:1002C000294608A80EF0A3FE044640F2FF1007904E
:1002D000002007990CF065FD069004BB0698F0B16C
:1002E0001BE0694608A80EF0D9FE044614B99DF833
:1002F000090000B912E00698007808B1069801E0FC
:100300000DF10900074638460FF078FF044604F067
:10031000F000502801D1701C86B2E2E700BF3046E1
:1003200011B0F0BD0EB54FF6FF7002F0C7FE002011
:10033000FE490880012032210B462022CDE9001021
:100340000A21FBA011F0E3FE012032210B465A22C4
:10035000CDE900100A21FBA011F0D9FE01203221C5
:100360000B469422CDE900100A21FBA011F0CFFE2C
:100370000120102114230222CDE90010D821FBA076
:1003800011F0C5FE00201021FDA20B46CDE9002191
:10039000029060226E21502010F0A3FA002010215C
:1003A000FAA20B46CDE9002102906022A82150203C
:1003B00010F097FA00201021F7A20B46CDE900219A
:1003C0000290F0224FF49671022010F08AFAFAA0FF
:1003D00010210B46C822CDE900100221084606F084
:1003E000E3FC80201021CDE90010F7488288042327
:1003F0000221084606F06BFC80201021CDE9001098
:10040000F1488279022319462A2006F060FC8020F8
:100410001021CDE90010EC48C27902231946422090
:1004200006F055FCE9A010210B46C822CDE90010CA
:100430003A21602006F0B8FC80201021CDE90010A0
:10044000E148027802233A21602006F040FC802037
:100450001021CDE90010DC48427802233A217820AF
:1004600006F035FC80201021CDE90010D6488278B6
:1004700002233A21922006F02AFCD348007A07286A
:1004800060D2DFE800F004111E2B38455200012035
:100490001021D1A20B46CDE900210290C8222821CB
:1004A000602010F01EFA4DE001201021CCA20B4676
:1004B000CDE900210290C8222821602010F011FA15
:1004C00040E001201021C8A20B46CDE90021029096
:1004D000C8222821602010F004FA33E00120102106
:1004E000C4A20B46CDE900210290C8222821602039
:1004F00010F0F7F926E001201021C1A20B46CDE94A
:1005000000210290C8222821602010F0EAF919E0A9
:1005100001201021BDA20B46CDE900210290C82286
:100520002821602010F0DDF90CE001201021B9A293
:100530000B46CDE900210290C8222821602010F04E
:10054000D0F900BF00BF0EBD10B50024B44841680B
:1005500000208847B24890F8200000F08000002872
:1005600077D0AF480C3030F81400AE490988884283
:100570006FDAAB48163030F81400AA49498888422F
:10058000F6DAA7480C3030F81400142813DDA4481C
:100590000C3030F8140032280DDAA148163030F84B
:1005A0001400A02807DA9E48163030F814008C2872
:1005B00001DD012010BD9A480C3030F814004828A5
:1005C00013DD97480C3030F8140064280DDA944895
:1005D000163030F81400A02807DA9148163030F8A9
:1005E00014008C2801DD0220E4E78D480C3030F83F
:1005F0001400822813DD8A480C3030F814009C283F
:100600000DDA8748163030F81400A02807DA84483D
:10061000163030F814008C2801DD0320CAE780482A
:100620000C3030F81400142814DD7D480C3030F8FC
:10063000140032280EDA7A48163030F81400D82820
:1006400008DA7748163030F81400C02802DD04209C
:10065000B0E71DE172480C3030F81400482813DD73
:100660006F480C3030F8140064280DDA6C481630EE
:1006700030F81400D82807DA6948163030F814002A
:10068000C02801DD052095E765480C3030F81400DE
:10069000822813DD62480C3030F814009C280DDAF3
:1006A0005F48163030F81400D82807DA5C48163056
:1006B00030F81400C02801DD06207BE758480C30D4
:1006C00030F81400142814DD55480C3030F81400AC
:1006D00032280EDA5248163030F81400B0F58C7F0C
:1006E00007DA4F48163030F81400E62801DD0720FD
:1006F00060E74B480C3030F81400482814DD4848B7
:100700000C3030F8140064280EDA4548163030F802
:100710001400B0F58C7F07DA4148163030F8140029
:10072000E62801DD082045E77EE000005E010020AC
:10073000303A2F504943545552452F74696D652EF8
:10074000626D7000303A2F504943545552452F7313
:10075000616E2E626D700000303A2F50494354553F
:1007600052452F676F6E672E626D7000303A2F50C2
:100770004943545552452F78696E2E626D700000C2
:10078000BFD5D3E0D3EAC9A13A000000BDE8C9A1B2
:10079000D4B1B9A43A00000020D4B1B9A4202020DB
:1007A00020CBA2BFA820202020BDE8C9A120202066
:1007B000BBB9C9A100000000202020202D20202D41
:1007C00020202020200000008613002020203A2036
:1007D000203A2020000000002053756E64617900EB
:1007E000204D6F6E64617900205475657364617982
:1007F00000000000205765646E6573646179000035
:100800002054687572736461790000002046726933
:10081000646179002053617475726461790000002D
:100820006C01002078030020FE4830F81400822874
:1008300013DDFC4830F814009C280EDAF9480A3021
:1008400030F81400B0F58C7F07DAF6480A3030F83B
:100850001400E62801DD0920ACE6F24830F8140067
:10086000B22813DDEF4830F81400DC280EDAED482A
:100870000A3030F81400B0F58C7F07DAE9480A3006
:1008800030F81400BC2801DD0B2093E6002091E62F
:1008900000BF8FE6FEB50024002600250020E249B7
:1008A0000870E249087000BF4BE00C20DE49085593
:1008B00021E00026FFF748FEDB490855002001F043
:1008C00031FE0546022D01D101261CE0032D12D177
:1008D00000201021AFF21412CDE9002102907821FE
:1008E00001EB0411103988B210231A4628210FF0A9
:1008F000F8FFA01EC4B2CC48005D0028D9D0CA4879
:10090000005D0C28D5D000BF012E00D11BE0C648E9
:10091000005D0B2802D10020C34908557EB9802014
:100920001021CDE90010C0490A5D782101EB0410C7
:100930000123282106F0CBF9FA2009F0B2FC601C53
:10094000C4B2062CB1DB00BF00201021B8A20B46B8
:10095000CDE900210290C8220A2128200FF0C1FF12
:10096000B1480078B5494843AF49497840F271220F
:10097000514300EB0110AC49897801EB4102C2EB15
:10098000C11100EBC100A849C97801EBC10202EB1B
:10099000011100EB8100A449097901EB810100EB11
:1009A0004100A14949790844A549086000242FE085
:1009B000C4EBC400A34951F82000A149096888424A
:1009C00024D100201021A0A20B46CDE900210290E5
:1009D000C8220A2128200FF084FFC4EBC4009949E3
:1009E00001EB8000007C914908704FF47A7009F0A7
:1009F00058FC0020102199A20B46CDE9002102905D
:100A0000C8220A2128200FF06CFF03E0601CC4B24A
:100A10000A2CCDDB00BF00258448007880B9002077
:100A2000102192A20B46CDE900210290C8220A2192
:100A300028200FF056FF4FF47A7009F032FC02259F
:100A400003E0002001F06EFD0546002DF9D00020E6
:100A500010218BA20B46CDE900210290C8220A2169
:100A600028200FF03EFF2846FEBD0EB54FF6FF7062
:100A700002F024FB0020102186A20B46CDE90021C4
:100A80000290F0224FF4967102200FF02AFF00200E
:100A9000102188A20B46CDE9002102906022282176
:100AA00008200FF01EFF4023DC2220216E2005F0DD
:100AB000A5FF4FF49173E6227821082005F09EFFF0
:100AC0004FF491733F227821104605F03FFF4FF419
:100AD000917376227821104605F038FF4FF4917318
:100AE000AD227821104605F031FFB023E6221946E9
:100AF000082005F02BFFE823E6221946082005F020
:100B000025FF002010216FA20B46CDE900210290A5
:100B1000F0228C211E200FF0E4FE002010216FA295
:100B20000B46CDE900210290F022C4211E200FF0D7
:100B3000D8FE002010216FA20B46CDE900210290C3
:100B4000F022FA211E200FF0CCFE0EBD10B50024BD
:100B5000FFF78BFFFFF79EFE0446022C03D1002413
:100B6000FFF7E0FB07E0042C01D1002403E0032C95
:100B700001D1FFF7EBFF10BDFEB5002600240025D4
:100B800000206249087000BF49E00C205F49085509
:100B900020E00026FFF7D8FC5C490855002001F052
:100BA000C1FC0546022D01D101261BE0032D11D108
:100BB0000020102136A2CDE900210290782101EB1E
:100BC0000411103988B210231A4650210FF089FE03
:100BD000A01EC4B24D48005D0028DAD04B48005D2D
:100BE0000C28D6D000BF012E00D11AE04748005D86
:100BF0000B2802D100204549085580201021CDE95D
:100C0000001042490A5D782101EB041001235021B4
:100C100006F05DF8FA2009F044FB601CC4B2062C13
:100C2000B3DB75E0780100202A0100204401002098
:100C3000D5FDD4DAB2E9D5D22E2E2E00A086010041
:100C40003C01002000000020B2E9D5D2B3C9B9A60A
:100C50002E2E2E202020202000000000C7EBB0B454
:100C6000C8B7C8CFBCFC2E2E2E000000B2E9D5D2EA
:100C7000B4EDCEF32E2E2E202020202000000000E8
:100C80002020202020202020202020202020202064
:100C90002000000020D2BBD2BB20202020CDCBB32F
:100CA000F620202020D6D8CAE4202020C8B7C8CFFC
:100CB00000000000C7EBCAE4C8EBD4B1B9A4BAC5C0
:100CC0000000000031202020202020322020202081
:100CD00020203320202020D2BBD2BB003420202073
:100CE000202020352020202020203620202020D227
:100CF000BBD2BB00372020202020203820202020FD
:100D00002020392020202020300000003001002049
:100D100000BF0025F7480078F7494843F54949786E
:100D200040F27122514300EB0110F249897801EB46
:100D30004102C2EBC11100EBC100EE49C97801EBE1
:100D4000C10202EB011100EB8100EA49097901EBD4
:100D5000810100EB4100E74949790844E74908600F
:100D6000012E02D102250020086003E0002001F0DE
:100D7000D9FB0546002DF9D02846FEBD0EB54FF62D
:100D8000FF7002F09BF900201021AFF2F8020B4631
:100D9000CDE900210290F0224FF4967102200FF06D
:100DA000A0FD00201021AFF2F4020B46CDE9002196
:100DB00002906022282108200FF093FD4023DC22BE
:100DC00020216E2005F01AFE4FF49173E62278215F
:100DD000082005F013FE4FF491733F22782110464E
:100DE00005F0B4FD4FF4917376227821104605F09A
:100DF000ADFD4FF49173AD227821104605F0A6FDAC
:100E0000B023E6221946082005F0A0FDE823E622DB
:100E10001946082005F09AFD00201021AFF25C125F
:100E20000B46CDE900210290F0228C211E200FF00C
:100E300058FD00201021AFF25C120B46CDE90021D5
:100E40000290F022C4211E200FF04BFD0020102143
:100E5000AFF260120B46CDE900210290F022FA2198
:100E60001E200FF03EFD0EBD0EB5FFF787FF4FF4BD
:100E7000C87009F016FAFFF70DFDA1490870084681
:100E80000078022807D1FFF74DFA00209D4908702D
:100E90009B49087028E09A480078032807D1002071
:100EA00097490870FFF76AFFFFF7DEFF1CE09448E0
:100EB0000078042818D10020102193A20B46CDE918
:100EC000002102906022502108200FF00AFD6823C3
:100ED000DC2248216E2005F091FD02218E48007829
:100EE00009F025F8FFF748FE0EBD0EB500201021D1
:100EF0008AA20B46CDE900210290F0224FF49671B0
:100F000002200FF0EEFC002010218CA20B46CDE950
:100F100000210290F022202102200FF0E2FC0020AC
:100F200010218DA20B46CDE90021029038221146F6
:100F30000A200FF0D6FC0020102189A20B46CDE933
:100F400000210290382250210A200FF0CAFC002014
:100F5000102185A20B46CDE900210290382268219C
:100F60000A200FF0BEFC0020102181A20B46CDE923
:100F700000210290382280210A200FF0B2FC0020CC
:100F800010217DA20B46CDE9002102903822982144
:100F90000A200FF0A6FC7A49522008F07DFC79491E
:100FA00008700846007807287ED1774808F09FFC33
:100FB0000728F9D1744808F011FD0728F4D1724BC5
:100FC000724A0621612008F042FD0728ECD18020FA
:100FD0001021CDE900106A480278032338214A2005
:100FE00005F075FE80201021CDE90010644842789C
:100FF000032338216A2005F06AFE80201021CDE904
:1010000000105F488278032338218A2005F05FFEB4
:1010100080201021CDE900105948C27803233821DF
:10102000AA2005F054FE80201021CDE9001056487A
:101030000278032350214A2005F049FE8020102128
:10104000CDE9001050484278032350216A2005F072
:101050003EFE80201021CDE900104B48827803230A
:1010600050218A2005F033FE80201021CDE90010A8
:101070004548C27803235021AA2005F028FE4248A3
:101080000078B32810D14048407842280CD13E481F
:101090008078192808D13C48C078AE2804D10020B7
:1010A00010213BA20B4600E08EE0CDE9002102902A
:1010B0003C2268214A200FF014FC0020102136A2A7
:1010C0000B46CDE900210290642280214A200FF0D6
:1010D00008FC3448406960B90020102132A20B4658
:1010E000CDE900210290382298214A200FF0F9FB27
:1010F0006AE05DE030010020A08601004001002090
:101100002801002029010020C7EBCAE4C8EBD1E97F
:10111000D6A4C2EB000000004401002020202020C3
:101120002020202020BBB9C9A120202020BDE8C953
:10113000A1202020B7B5BBD800000000202020C788
:10114000EBBDABD4B1B9A4BFA8B7C5D6C3D6C1B89F
:10115000D0D3A6C7F8210000BFA8C0E0D0CD3A0088
:10116000BFA82020BAC53A00D4B1B9A4BAC53A0084
:10117000B5E7BBB0BAC53A00D7B42020CCAC3A0032
:1011800018010020260100201C0100202001002061
:10119000333932303031000031373130343935377E
:1011A0003530000000000020CEB4BDE8C9A1000029
:1011B00000201021FEA20B46CDE90021029038222A
:1011C00098214A200FF08DFBFB48006808B90120E8
:1011D00000E00020F8490860002001F0A3F90EBDEE
:1011E00000B585B04FF6FF7001F068FFAFF638200C
:1011F00010210B46C822CDE900100221084605F057
:10120000D3FD80201021CDE90010EC488088042314
:10121000024602210390084605F059FD8020102166
:10122000CDE90010E5488079022302461946039073
:101230002A2005F04CFD80201021CDE90010DF4868
:10124000C0790223024619460390422005F03FFD73
:101250000120102114230222CDE90010D821AFF67D
:10126000F42010F054FF00201021D5A20B46CDE948
:1012700000210290F0224FF4967102200FF031FB12
:1012800000201021D6A20B46CDE900210290C822F1
:101290001A2102200FF025FB00201021D5A20B46B9
:1012A000CDE9002102903022342128200FF019FBD3
:1012B00000201021D1A20B46CDE90021029030225E
:1012C000342178200FF00DFB00201021CDA20B4619
:1012D000CDE90021029020223421C2200FF001FB31
:1012E0004FF49173E6223021082005F087FB482354
:1012F000E6221946082005F029FB6023E62219465C
:10130000082005F023FB7823E6221946082005F083
:101310001DFB9023E6221946082005F017FBA823A1
:10132000E6221946082005F011FBC023E6221946E3
:10133000082005F00BFBD823E6221946082005F00B
:1013400005FBF023E6221946082005F0FFFA4FF4CA
:101350008473E6221946082005F0F8FA4FF49073DA
:10136000E6221946082005F0F1FA4FF49173242281
:101370003021104605F0EAFA4FF4917360223021D3
:10138000104605F0E3FA4FF49173BE223021104667
:1013900005F0DCFA9D48007800287CD1049082E1B9
:1013A00080211020CDE900010498C0EBC0009849CD
:1013B00001EB800000690390049800EB4000482195
:1013C00001EBC000001D0223029001460C20039A8D
:1013D00005F07DFC80201021CDE900100498C0EBC1
:1013E000C0008B4951F820000390049800EB4001A5
:1013F000482000EBC100001D062302900146282072
:10140000039A05F064FC80201021CDE900100498B7
:10141000C0EBC0007E4901EB8000007930380390BA
:10142000049800EB4000482101EBC000001D01239F
:10143000029001466420039A05F049FC80201021A7
:10144000CDE900100498C0EBC000714901EB8000A9
:10145000407930380390049800EB4000482101EBBC
:10146000C000001D0123029001466C20039A05F084
:101470002EFC80201021CDE900100498C0EBC001A3
:10148000634800EB8100807930380390049800EBCA
:101490004000482100E00BE101EBC000001D0123EA
:1014A000029001467420039A05F011FC59A0102106
:1014B000CDE90010049800EB4000482101EBC0008A
:1014C000001D10231822014603907C2005F06CFCBF
:1014D00080201021CDE900100498C0EBC0004C49D9
:1014E00001EB8000C07A30380390049800EB400193
:1014F000482000EBC100001D01230290014694200A
:10150000039A05F0E4FB80211020CDE90001049846
:10151000C0EBC0003E4901EB8000007B30380390F7
:10152000049800EB4000482101EBC000001D01239E
:10153000029001469C20039A05F0C9FB80201021EF
:10154000CDE900100498C0EBC000314901EB8000E8
:10155000407B30380390049800EB4000482101EBB9
:10156000C000001D012302900146A420039A05F04B
:10157000AEFB80201021CDE900100498C0EBC00024
:10158000234901EB8000807B30380390049800EB06
:101590004000482101EBC000001D012302900146DC
:1015A000AC20039A05F093FB0498C0EBC00033E035
:1015B000D2D1BDE8000000009481214286130020B2
:1015C000C9CFD2BBD2B32020CFC2D2BBD2B320204E
:1015D00020CDCBB3F6202020C8B7C8CF0000000034
:1015E000202020202020202020D4B1B9A4D0C5CF95
:1015F000A2B1ED00D4B1B9A4BAC50000CAD6BBFAF5
:10160000BAC50000D7B4CCAC000000003601002001
:10161000000000202A2A2A00FE4901EB80004069D0
:10162000A0B900211022FCA0CDE90121009004986E
:1016300000EB4001482000EBC100001D13463022A2
:1016400001460390C2200FF04CF928E00498C0EB4B
:10165000C000F04901EB8000406901281FD14FF420
:101660007840EF49088000201021AFF2BC02CDE99C
:1016700000210290049800EB4000482101EBC000DB
:10168000001D1023302201460390C2200FF029F9DB
:101690004FF4C87008F005FE0020E1490880049866
:1016A000401CC0B2049004980928FFF679AE60E1AE
:1016B0000920049059E180201021CDE90010049800
:1016C000C0EBC000D34901EB80000069039004988F
:1016D000093800EB4000482101EBC000001D80B23A
:1016E0000223029001460C20039A05F0F0FA8020B4
:1016F0001021CDE900100498C0EBC000C54951F895
:10170000200003900498093800EB4001482000EBCA
:10171000C100001D80B20623029001462820039AD2
:1017200005F0D5FA80201021CDE900100498C0EB17
:10173000C000B84901EB800000793038039004986C
:10174000093800EB4000482101EBC000001D80B2C9
:101750000123029001466420039A05F0B8FA802024
:101760001021CDE900100498C0EBC000A94901EB9D
:1017700080004079303803900498093800EB40002D
:10178000482101EBC000001D80B2012302900146F8
:101790006C20039A05F09BFA80211020CDE900010E
:1017A0000498C0EBC0009B4901EB80008079303881
:1017B00003900498093800EB4000482101EBC00079
:1017C000001D80B20123029001467420039A05F0A7
:1017D0007EFAAFF2C0101021CDE90010049809384C
:1017E00000EB4000482101EBC000001D80B2102337
:1017F0001822014603907C2005F0D6FA80201021A3
:10180000CDE900100498C0EBC000824901EB8000D4
:10181000C07A303803900498093800EB4001482022
:1018200000EBC100001D80B201230290014694200C
:10183000039A05F04CFA80201021CDE9001004989D
:10184000C0EBC000734901EB8000007B303803908F
:101850000498093800EB4000482101EBC000001D4E
:1018600080B20123029001469C20039A05F02FFAD2
:1018700080201021CDE900100498C0EBC00065491C
:1018800001EB8000407B303803900498093800EB6E
:101890004000482101EBC000001D80B201230290EE
:1018A0000146A420039A05F012FA80201021CDE908
:1018B00000100498C0EBC000564901EB8000807B0B
:1018C000303803900498093800EB4000482101EBC0
:1018D000C000001D80B2012302900146AC20039A93
:1018E00005F0F5F90498C0EBC0004A4901EB80000F
:1018F0004069B0B90020102147A2CDE90021029033
:101900000498093800EB4000482101EBC000001D9D
:1019100080B21023302201460390C2200EF0E1FF76
:101920001FE00498C0EBC0013A4800EB8100406919
:10193000012816D100201021AFF28C32CDE9002110
:1019400002900498093800EB4000482101EBC000E8
:10195000001D80B21023302201460390C2200EF0F9
:10196000C0FF0498401CC0B2049004980A28FFF6F7
:10197000A2AE05B000BD3EB50024002529481021C7
:101980000B46C822CDE900100221084605F00CFAEA
:1019900080201021CDE900102348828804230221F1
:1019A000084605F094F980201021CDE900101E486A
:1019B0008279022319462A2005F089F98020102116
:1019C000CDE900101848C27902231946422005F0DB
:1019D0007EF91448143010210B46C822CDE90010BE
:1019E0003A21602005F0E0F980201021CDE90010B7
:1019F0000D48027802233A21602005F068F9802022
:101A00001021CDE900100848427802233A217820BD
:101A10000CE0000000000020CEB4BDE80000000093
:101A20005E010020B80700088613002005F04FF97A
:101A300080201021CDE90010F848827802233A2155
:101A4000922005F044F9F548007A072866D2DFE8CD
:101A500000F004111F2D3B49570001201021F04ACE
:101A60000B46CDE900210290C822282160200EF00B
:101A700038FF53E001201021E94A08320B46CDE936
:101A800000210290C822282160200EF02AFF45E0A4
:101A900001201021E24A10320B46CDE900210290CC
:101AA000C822282160200EF01CFF37E00120102101
:101AB000DB4A1C320B46CDE900210290C8222821C6
:101AC00060200EF00EFF29E001201021D44A2832B8
:101AD0000B46CDE900210290C822282160200EF09B
:101AE00000FF1BE001201021CD4A34320B46CDE926
:101AF00000210290C822282160200EF0F2FE0DE0A5
:101B000001201021C64A3C320B46CDE9002102904B
:101B1000C822282160200EF0E4FE00BF00BF802014
:101B200010210123CDE90010BE486E2102689C20DF
:101B300005F0CDF880201021CDE90010B9480068EB
:101B4000C0F104020123A8219C2005F0C0F8B5498A
:101B5000087808F0C1F8B348006804282CDAB148C6
:101B60000068002828DB002424E0C4EBC400AE4950
:101B700001EB8000406901281AD1C4EBC40001EBDD
:101B80008000807EA9490978081AC5B2B42D0FDDFE
:101B9000A6480088C4EBC401A34A02EB8101488334
:101BA000C4EBC40102EB8101087C012108F0BFF9FC
:101BB000601CC4B20A2CD8DBC82008F072FB3EBD02
:101BC00094B008F031FB08F099FB4FF4165008F080
:101BD000A9FB00F067FC01F0A3FA00F089FC0020EB
:101BE0000BF019F80EF0C6FA9148016800200CF0CD
:101BF00017FD8F48416801200CF012FD00208D492F
:101C0000088005F036FF05F0B5FF42F2107008F0CD
:101C10007FFC08F02DF807F043FD412007F078FD28
:101C200008F038F88449086880474FF4E13008F03C
:101C3000A7F8B92181480AF021FC03E04FF4FA70BB
:101C400008F02FFB05F015FF0028F7D115E07CA068
:101C500010210B46C822CDE9001032213C2005F0AE
:101C6000A3F8C82008F01DFB4FF6FF704223F022B6
:101C7000322100903C2004F0DDFD0EF01AFD00281A
:101C8000E5D1102171A20B46CDE900210290C822B6
:101C900032213C200EF025FE002010216FA20B46C1
:101CA000CDE900210290C82246213C200EF019FE09
:101CB000002010216DA20B46CDE900210290C82220
:101CC0005A213C200EF00DFE002010216BA20B4685
:101CD000CDE900210290C8226E213C200EF001FEC9
:101CE0000020102169A20B46CDE900210290C822F4
:101CF00082213C200EF0F5FD1AE00020102168A2A0
:101D00000B46CDE900210290F02296213C200EF0F6
:101D1000E8FDC82008F0C5FA4FF6FF709223F022C4
:101D2000962100903C2004F085FDC82008F0B9FA07
:101D300060A10BA80DF06BF90028DED15DA0FEF7C5
:101D4000BBFA06461AE0002010215DA20B46CDE941
:101D500000210290F02296213C200EF0C2FDC82006
:101D600008F09FFA4FF6FF709223F0229621009020
:101D70003C2004F05FFDC82008F093FA002EE2D06A
:101D800040F2FF100A9000200A990BF00AF809901F
:101D900000200A990BF005F88146710000200BF035
:101DA00000F807461AE00020102149A20B46CDE9B1
:101DB00000210290F02296213C200EF092FDC820D6
:101DC00008F06FFA4FF6FF709223F02296210090F0
:101DD0003C2004F02FFDC82008F063FA0998002881
:101DE000E1D0B9F1000FDED0002FDCD031A10BA87B
:101DF0000DF00DF9054675B94FF0000886E0BDF805
:101E000032A003A90BA80DF049F9054615B99DF8B4
:101E1000150008B97BE07BE062E00000861300203B
:101E2000D80700083801002000000020B40100207D
:101E3000300300205E0100206C01002000040040FF
:101E4000466F6E74204572726F722100D6C7C4DC73
:101E5000CED4CAD2C4D6D6D300000000CDBCC6AC06
:101E6000CFD4CABE2E2E2E2E0000000053333A4E81
:101E70004558542053313A50524556007777772EC3
:101E8000646F666C79652E6E657400005344BFA85C
:101E9000D0E8D2AABFBDB1B4CDBCC6AC0000000032
:101EA00050494354555245CEC4BCFEBCD0B4EDCECF
:101EB000F3210000303A2F50494354555245000059
:101EC000C3BBD3D0CDBCC6ACCEC4BCFE2100000089
:101ED000C4DAB4E6B7D6C5E4CAA7B0DC2100000076
:101EE0000998007808B1099801E00DF115008346C2
:101EF00058460EF083F9054605F0F000502805D14C
:101F000027F818A008F101001FFA80F877E700BF52
:101F100000201021C6A20B46CDE900210290F0223C
:101F200096213C200EF0DDFC40F2DC5008F0B9F9BF
:101F300010F020F800BFAFF284010BA80DF067F895
:101F4000FEF7F0F973E1002000F0ECFA0446052CEE
:101F500006D2DFE804F003063292F700FFF70BFD2C
:101F600060E10020B5490870FFF73AF922E000204F
:101F700000F0D8FA0446032C02DBFEF7D3F91AE08E
:101F8000022C0AD1AD48007838B9AC480078401C22
:101F9000AA490870FFF724F90CE0012C0AD1A748E0
:101FA0000078012806D1A5480078401EA349087092
:101FB000FFF716F9DBE700BF34E14FF6FF7001F0E1
:101FC0007DF855E0FEF791FF0446C82008F069F956
:101FD000042C00D14DE0032C26D19948406918BB50
:101FE0009848006800281FDD0120954948619648FF
:101FF0000088488393480068401E924908604FF665
:10200000FF7001F05BF80020102190A20B46CDE993
:1020100000210290F02296213C200EF062FC4FF449
:102020007A7008F03EF924E0022C21D184484069FE
:1020300001281DD1002082494861488381480068F9
:10204000401C804908604FF6FF7001F037F800200F
:10205000102181A20B46CDE900210290F0229621A9
:102060003C200EF03EFC4FF47A7008F01AF900E0C4
:10207000A8E700BFFEF756F9D4E0724800680028D0
:1020800061DD002077490860FEF7EEFE75480068C4
:102090007549884204D073480068744988423AD12F
:1020A00073480078401EC0EBC000654901EB80001A
:1020B000406978BB4FF6FF7001F000F80020102156
:1020C0006CA20B46CDE900210290F02296213C2023
:1020D0000EF007FC4FF47A7008F0E3F80121644831
:1020E0000078401EC0EBC000554A02EB8000416101
:1020F000554801885E480078401EC0EBC00002EBE6
:10210000800041834F480068401E4E49086000200F
:102110005749087013E04FF6FF7000F0CFFF002022
:10212000102157A20B46CDE900210290F022962102
:102130003C200EF0D6FB4FF47A7008F0B2F8FEF7B0
:10214000F1F816E016E04FF6FF7000F0B7FF002040
:1021500010214EA20B46CDE900210290F0229621DB
:102160003C200EF0BEFB4FF47A7008F09AF8FEF7B0
:10217000D9F857E01F2048490880FEF7E7FC3C48A3
:10218000007800284BDD3A480078401EC0EBC000C4
:102190002B4901EB8000406901282CD100213448F3
:1021A0000078401EC0EBC000254A02EB8000416170
:1021B00024480068401C2349086000212C4800780E
:1021C000401EC0EBC00002EB800041834FF6FF7061
:1021D00000F074FF002010211FA20B46CDE9002162
:1021E0000290F02296213C200EF07BFB4FF47A7097
:1021F00008F057F813E04FF6FF7000F05FFF002083
:10220000102126A20B46CDE900210290F022962152
:102210003C200EF066FB4FF47A7008F042F8FEF7AF
:1022200081F800BF00BF642008F03BF800BF8AE6D9
:10223000BFAACABCCFD4CABE2E2E2E0036010020A3
:102240000000002038010020B4010020C8A1C9A16D
:10225000B3C9B9A600000000BBB9C9A1B3C9B9A6EA
:10226000000000004001002040E201008849080011
:1022700044010020C8A1C9A1B3C9B9A62E2E2E00C1
:10228000C8A1C9A1CAA7B0DC2E2E2E00C3BBC9A10C
:10229000C1CBA3A1000000005E010020BBB9C9A111
:1022A000CAA7B0DC00000000704700BFFEE700BF17
:1022B000FEE700BFFEE700BFFEE7704770477047CC
:1022C000704700000CB50020019000906C48006839
:1022D00040F480306A49086000BF6948006800F433
:1022E000003000900198401C0190009818B90198A6
:1022F000B0F5A06FF1D16248006800F4003010B171
:102300000120009001E0002000900098012843D1B6
:102310005C48006840F010005A49086008460068B0
:1023200020F0030008600846006840F002000860E2
:10233000534840685249486008464068486008462B
:10234000406840F4806048600846406820F47C1093
:1023500048600846406840F4E81048600846006855
:1023600040F08070086000BF4548006800F00070D1
:102370000028F9D04248406820F0030040494860F6
:102380000846406840F00200486000BF3C48406892
:1023900000F00C000828F9D10CBD10B5FFF792FF32
:1023A00010BD10B53648006840F00100344908609F
:1023B000084640683449084031494860084600688A
:1023C000324908402E4908600846006820F4802001
:1023D00008600846406820F4FE0048604FF41F0083
:1023E0008860FFF7DAFF4FF000602949086010BDF0
:1023F00010B5002100200022214B5B6803F00C0186
:1024000021B1042906D0082928D107E0214B224C0C
:10241000236027E01F4B204C236023E0184B5B68B0
:1024200003F47010164B5B6803F48032022303EB55
:10243000904022B9194B4343174C23600DE0104BD9
:102440005B6803F4003323B1144B4343124C236005
:1024500003E0104B4343104C236003E00D4B0E4C44
:10246000236000BF00BF064B5B68C3F303130C4C33
:10247000E15C094B1B68CB40074C236010BD00009A
:1024800000100240002002400000FFF8FFFFF6FEAF
:1024900008ED00E000127A004801002000093D002C
:1024A0004C01002008B50121482008F035FF20200C
:1024B000ADF8000010208DF8030003208DF8020015
:1024C0006946094808F06CFC2021074808F015FD12
:1024D0002020ADF800006946044808F061FC202186
:1024E000024808F00AFD08BD000C01400018014038
:1024F00008B50121442008F00FFF1C20ADF80000B2
:1025000048208DF803006946354808F049FC012051
:10251000ADF8000028208DF803006946314808F026
:102520003FFC08BD10B5044614B101202E490870C7
:102530002D480078002837D01021294808F0C3FC26
:1025400078B10821264808F0BEFC50B10421244887
:1025500008F0B9FC28B10121224808F0B4FC012898
:1025600022D10A2007F09DFE00201F49087010218B
:102570001B4808F0A8FC08B9012010BD0821184824
:1025800008F0A1FC08B90220F7E70421144808F07C
:102590009AFC08B90320F0E70121124808F093FCE7
:1025A00001281BD10420E8E710210D4808F08BFC1E
:1025B000012813D108210A4808F085FC01280DD113
:1025C0000421074808F07FFC012807D101210548B4
:1025D00008F079FC10B90120034908700020CCE70D
:1025E00000180140000801405C010020FE490880FD
:1025F0007047FD49891C08807047FB48801C008893
:102600007047F94A1080921C1180704710B504463B
:102610002046FFF7EBFF052007F01FFEFFF7EDFF59
:1026200010BDF2480089F04908807047EE49891CC6
:102630000880704730B5014601F01F04C1F345130F
:10264000CA0AE50205EB43151544A8B230BD00BF28
:10265000011EA0F10102D0B2FAD1704710B50346B5
:102660000C46E248808849F24131884205D0DF4873
:10267000808845F21031884214D1DC494889FFF73F
:10268000B5FF1812FFF7B5FFD8B2FFF7B2FFD74971
:102690008889FFF7ABFF2012FFF7ABFFE0B2FFF72F
:1026A000A8FF5DE0D148808846F6040188421DD12C
:1026B000CE488079012804D1CC480088401EC01A39
:1026C00083B2CA494889FFF791FF1812FFF791FFBB
:1026D000D8B2FFF78EFFC5498889FFF787FF201220
:1026E000FFF787FFE0B2FFF784FF39E0BF4880883B
:1026F00045F21051884220D1BC494889FFF776FF46
:102700001812FFF776FFB9494989491C88B2FFF7CB
:102710006DFFD8B2FFF76DFFB4498889FFF766FFF8
:102720002012FFF766FFB1498989491C88B2FFF77B
:102730005DFFE0B2FFF75DFF12E0AC488079012851
:1027400004D1AA480088401EC01A83B2A74948890C
:102750001946FFF756FFA54988892146FFF751FF23
:1027600010BD2DE9F04105460E4600240027A04685
:102770009E480088A84203DD9C484088B04202DCA5
:102780000020BDE8F08131462846FFF767FF9748F3
:10279000808849F2413188420BD09448808846F6BF
:1027A0000401884205D09148808845F21031884262
:1027B00003D12E20FFF71AFF0DE08C48808845F2E8
:1027C0001051884204D14FF43850FFF70FFF02E058
:1027D0002220FFF70BFF8548808849F2203188428C
:1027E00002D10220FFF733FF7F48801C008800B130
:1027F00000240220FFF72BFF7B48801C04887B48C5
:10280000808849F2413188420BD07848808845F26F
:102810001031884205D07548808845F210518842B1
:102820000CD10220FFF713FF6F48801CB0F8008026
:10283000E7B24FF6FF7000EA072708E06B48808890
:1028400046F60401884202D16748801C0488674824
:10285000808849F22531884216D06448808844F245
:102860003551884210D061488088091F88420BD0BA
:102870005E48808848F68911884205D05B48808888
:102880004BF20551884201D120467AE757488088AB
:1028900049F2413188420BD05448808845F21031CA
:1028A000884205D05148808845F21051884207D1AE
:1028B000E012C002B91240EA411040EAE82060E7A5
:1028C0002046FFF7B7FE5CE700B54848808849F22C
:1028D000413188420BD04548808846F60401884241
:1028E00005D04248808845F21031884203D1292022
:1028F000FFF77CFE0FE03D48808845F2105188428A
:1029000004D14FF42450FFF771FE04E040F273113C
:102910000720FFF776FE00BD00B53448808849F2F5
:10292000413188420BD03148808846F60401884204
:1029300005D02E48808845F21031884203D12820E6
:10294000FFF754FE0EE02948808845F21051884276
:1029500004D14FF42050FFF749FE03E00021072087
:10296000FFF74FFE00BD70B50446002300261F4848
:10297000807901281ED11D48808846F604018842CE
:1029800018D0082C15D2DFE804F00406080A0C0E53
:10299000101206240DE007240BE0042409E00524AE
:1029A00007E0012405E0002403E0032401E0022401
:1029B00000BF00BF0D48808849F24131884211D0E4
:1029C0000A48808846F6040188420BD00748808870
:1029D00045F21031884205D00448808845F21051F4
:1029E00088427CD1082C03E0FE07006C78030020AD
:1029F0001CD2DFE804F00406090C0F12151800BF02
:102A000014E043F0800311E043F040030EE043F094
:102A1000C0030BE043F0200308E043F0600305E04F
:102A200043F0A00302E043F0E00300BF00BFFC4816
:102A3000808845F21051884202D14FF4585600E088
:102A40003626F748808845F21031884207D0F4488E
:102A5000808845F21051884201D043F00803F048C5
:102A6000808846F60401884201D143F002031946EA
:102A70003046FFF7C6FD03F0200018B9E84880791A
:102A800001280DD1E6480088E5494988884214DAD2
:102A9000E34805884088E2490880084645800CE004
:102AA000DF480088DE494988884206DDDC48058821
:102AB0004088DB49088008464580D948808845F22F
:102AC0001051884254D1D6494889FFF78FFD002024
:102AD000FFF78FFDD2494989491C88B200E076E0B2
:102AE000FFF784FD0020FFF784FDCD494989891C4B
:102AF00088B2FFF77BFDCA490988491EC1F30F2040
:102B0000FFF777FDC6494989C91C88B2FFF76EFDFA
:102B1000C3490978491EC8B2FFF76BFDC0498889CF
:102B2000FFF764FD0020FFF764FDBD498989491C5A
:102B300088B2FFF75BFD0020FFF75BFDB84989898C
:102B4000891C88B2FFF752FDB5494988491EC1F377
:102B50000F20FFF74EFDB2498989C91C88B2FFF7E3
:102B600045FDAF498978491EC8B2FFF742FD60E0D4
:102B7000AB494889FFF73AFD0020FFF73AFD0020F6
:102B8000FFF737FDA6490988491EC1F30F20FFF75B
:102B900030FDA3490978491EC8B2FFF72AFDA049B4
:102BA0008889FFF723FD0020FFF723FD0020FFF7B2
:102BB00020FD9B494988491EC1F30F20FFF719FDED
:102BC00097498978491EC8B2FFF713FD31E0082CF8
:102BD0001CD2DFE804F004070A0D0F12151843F0A9
:102BE000300313E043F0100310E043F020030DE046
:102BF00000BF0BE043F0380308E043F0280305E092
:102C000043F0180302E043F0080300BF00BF84480C
:102C1000808848F68911884204D1112646F2400086
:102C2000034302E0032643F4805319463046FFF77E
:102C3000E8FC70BD30B504460D4629462046FFF736
:102C40000DFDFFF7EEFC774800887749088030BD1E
:102C500030B503460C4615467148808849F241312B
:102C6000884205D06E48808845F21031884214D1E0
:102C70006B494889FFF7BAFC1812FFF7BAFCD8B2C3
:102C8000FFF7B7FC66498889FFF7B0FC2012FFF711
:102C9000B0FCE0B2FFF7ADFC5DE06148808845F232
:102CA0001051884220D15E494889FFF79FFC1812D5
:102CB000FFF79FFC5A494989491C88B2FFF796FCE7
:102CC000D8B2FFF796FC56498889FFF78FFC20128F
:102CD000FFF78FFC52498989491C88B2FFF786FCAF
:102CE000E0B2FFF786FC36E04D48808846F60401E6
:102CF00088421DD14A488079012804D1484800887B
:102D0000401EC01A83B246494889FFF76FFC18126B
:102D1000FFF76FFCD8B2FFF76CFC41498889FFF7D9
:102D200065FC2012FFF765FCE0B2FFF762FC12E0E1
:102D30003B488079012804D139480088401EC01AD8
:102D400083B2374948891946FFF75BFC34498889C3
:102D50002146FFF756FC324800893349891E088016
:102D6000881C058030BD10B50446002C66D12C4966
:102D70008871F02008804FF4A07048800846808851
:102D800049F2413188420BD02548808846F604013B
:102D9000884205D02248808845F2103188421AD1F5
:102DA0002C201F4908812A2048812B208881084631
:102DB000808846F60401884205D01948808845F28B
:102DC0001031884206D14FF4A070154908804FF4A5
:102DD000F07048809BE01248808848F6891188424C
:102DE00007D122200E4908814E2048814F2088813A
:102DF0008DE00B48808845F21051884216D14FF47F
:102E00003050074908814FF4285048814FF42C5026
:102E100088814FF4F07008804FF44870488076E065
:102E2000780300205E0100200008006C2220FE498B
:102E30000881202048812120888168E00120FA490A
:102E400088714FF4A0700880F02048800846808880
:102E500049F24131884205D0F348808845F210316B
:102E6000884207D12C20F04908812A2048812B2054
:102E7000888139E0EC48808846F60401884207D111
:102E80002C20E94908812B2048812A2088812BE0C9
:102E9000E548808848F68911884207D12220E24916
:102EA00008814F2048814E2088811DE0DE488088BF
:102EB00045F21051884210D14FF43050DA49088160
:102EC0004FF4285048814FF42C5088814FF44870BB
:102ED00008804FF4F070488006E02220D249088133
:102EE0002120488120208881CF48808846F604012F
:102EF000884205D0CC48808845F21031884206D1FE
:102F00004FF4F070C84908804FF4A070488000204A
:102F1000FFF729FD10BD2DE9FF4F04460D4616466B
:102F20001F46A019401E86B2E819401E87B2BE484F
:102F3000808849F2413188420BD0BB48808845F2F5
:102F40001031884205D0B848808846F6040188428E
:102F500020D1B5494889FFF749FB2012FFF749FB0B
:102F6000E0B2FFF746FB3012FFF743FBF0B2FFF78A
:102F700040FBAD498889FFF739FB2812FFF739FB81
:102F8000E8B2FFF736FB3812FFF733FBF8B2FFF772
:102F900030FB91E0A448808845F21051884244D12A
:102FA000A1494889FFF722FB2012FFF722FB9E4927
:102FB0004989491C88B2FFF719FBE0B2FFF719FBFA
:102FC00099494989891C88B2FFF710FB3012FFF735
:102FD00010FB95494989C91C88B2FFF707FBF0B27D
:102FE000FFF707FB90498889FFF700FB2812FFF7DE
:102FF00000FB8D498989491C88B2FFF7F7FAE8B2CE
:10300000FFF7F7FA88498989891C88B2FFF7EEFA39
:103010003812FFF7EEFA84498989C91C88B2FFF794
:10302000E5FAF8B2FFF7E5FA46E07F488079012833
:103030000ED1A846B9467C480088801B401E80B24D
:10304000019079480088001B401E80B2009003E088
:10305000A046B146019500977348808848F68911CB
:1030600088420DD14FF0440A4FF0440B48EA092042
:103070001FFA80F8C146452003904620029007E0E1
:103080004FF0500A4FF0510B522003905320029002
:1030900041465046FFF7B5FA49465846FFF7B1FAA0
:1030A00001990398FFF7ADFA00990298FFF7A9FA82
:1030B00029462046FFF7D2FABDE8FF8F70B50446D7
:1030C000002659480588408845435748808846F679
:1030D0000401884216D154488079012812D1002079
:1030E000514988712A2048812B2088810021084677
:1030F000FFF7B4FA01204C4988712B2048812A201F
:10310000888103E000210846FFF7A8FAFFF789FA53
:10311000002602E045480480761CAE42FAD370BD1A
:1031200000B59FB00121080208F0E9F8012140F242
:10313000691008F0F1F80120ADF8780010208DF842
:103140007B0003208DF87A001EA9394807F028FE7D
:103150004CF23370ADF8780018208DF87B00032016
:103160008DF87A001EA9334807F01AFE4FF68070DA
:10317000ADF8780018208DF87B0003208DF87A00D8
:103180001EA92D4807F00CFE41F20100ADF87800B1
:1031900018208DF87B0003208DF87A001EA927489F
:1031A00007F0FEFD01200890002009900F200A90F2
:1031B00000200B900C900D900E9001900290032037
:1031C00003900020049005900690079006200F9031
:1031D0000020109011901020129000201390159054
:1031E0001490169017904FF480501890002019906A
:1031F0004FF480401A9000201B9008A81C9001A852
:103200001D900FA807F0B2FA0121062007F016FC66
:10321000322007F046F801210020FFF7F2F93220B2
:1032200007F03FF800200BE0780300200008006C56
:10323000000C014000140140001801400020014032
:10324000FFF7E4F9FE49888008468088FF280ADBFA
:10325000084680884FF6FF71884204D0F84880887D
:10326000B0F5134F7ED1D320FFF7C0F9FFF7C5F9B2
:10327000FFF7C3F9FFF7C1F9F14988800846808854
:103280004FF6FF7101EA0020ED498880FFF7B5F99C
:10329000EB4989880843EA4988800846808849F2D2
:1032A000413188426CD0BF20FFF7A0F9FFF7A5F9A4
:1032B000FFF7A3F9FFF7A1F9FFF79FF9E04988802D
:1032C000084680884FF6FF7101EA0020DC498880BB
:1032D000FFF793F9DA4989880843D9498880084675
:1032E000808846F6040188424AD0D420FFF77EF950
:1032F000FFF783F9FFF781F9FFF77FF9D04988805D
:10330000084680884FF6FF7101EA0020CC4988808A
:10331000FFF773F9CA4989880843C9498880084674
:10332000808845F2103188422AD04FF45A40FFF786
:103330005DF9FFF762F94FF45B40FFF757F9FFF7CC
:103340005CF9BF498880084680884FF6FF7101EA22
:103350000020BB4988804FF45C40FFF747F9FFF736
:103360004CF900E00CE0B64989880843B4498880EC
:1033700008468088B0F5004F02D145F21050888091
:10338000AF488188AFA010F0B5F8AD48808849F209
:10339000413188427ED1CF20FFF728F90020FFF786
:1033A00028F9C120FFF725F93020FFF722F9ED2099
:1033B000FFF71CF96420FFF71CF90320FFF719F948
:1033C0001220FFF716F98120FFF713F9E820FFF725
:1033D0000DF98520FFF70DF91020FFF70AF97A2083
:1033E000FFF707F9CB20FFF701F93920FFF701F9C3
:1033F0002C20FFF7FEF80020FFF7FBF83420FFF742
:10340000F8F80220FFF7F5F8F720FFF7EFF8202093
:10341000FFF7EFF8EA20FFF7E9F80020FFF7E9F8F7
:103420000020FFF7E6F8C020FFF7E0F81B20FFF7C9
:10343000E0F8C120FFF7DAF80120FFF7DAF8C5203D
:10344000FFF7D4F83020FFF7D4F83020FFF7D1F899
:10345000C720FFF7CBF8B720FFF7CBF83620FFF7F0
:10346000C5F84820FFF7C5F83A20FFF7BFF8552008
:10347000FFF7BFF8B120FFF7B9F80020FFF7B9F860
:103480001A20FFF7B6F8B620FFF7B0F80A20FFF7CA
:10349000B0F800E097E0A220FFF7ABF8F220FFF7CA
:1034A000A5F80020FFF7A5F82620FFF79FF80120D8
:1034B000FFF79FF8E020FFF799F80F20FFF799F842
:1034C0002A20FFF796F82820FFF793F80820FFF747
:1034D00090F80E20FFF78DF80820FFF78AF85420A7
:1034E000FFF787F8A920FFF784F84320FFF781F85A
:1034F0000A20FFF77EF80F20FFF77BF80020FFF788
:1035000078F80020FFF775F80020FFF772F8002028
:10351000FFF76FF8E120FFF769F80020FFF769F87F
:103520001520FFF766F81720FFF763F80720FFF76D
:1035300060F81120FFF75DF80620FFF75AF82B20FE
:10354000FFF757F85620FFF754F83C20FFF751F8E3
:103550000520FFF74EF81020FFF74BF80F20FFF77C
:1035600048F83F20FFF745F83F20FFF742F80F20CB
:10357000FFF73FF82B20FFF739F80020FFF739F865
:103580000020FFF736F80120FFF733F83F20FFF760
:1035900030F82A20FFF72AF80020FFF72AF8002049
:1035A000FFF727F80020FFF724F8EF20FFF721F8B6
:1035B0001120FFF71BF8782006F073FE2920FFF793
:1035C00015F803F02AB91E48808846F6040188429F
:1035D0007ED11120FFF70AF8142006F062FED020F9
:1035E000FFF704F80720FFF704F84220FFF701F87F
:1035F0001D20FEF7FEFFD120FEF7F8FF0020FEF7AA
:10360000F8FF1A20FEF7F5FF0920FEF7F2FFD2209F
:10361000FEF7ECFF0120FEF7ECFF2220FEF7E9FFAA
:10362000C020FEF7E3FF1020FEF7E3FF3B20FEF78C
:10363000E0FF0020FEF7DDFF0220FEF7DAFF09E0E1
:1036400078030020204C43442049443A25780D0A51
:10365000000000001120FEF7CCFFC520FEF7C6FFDA
:103660000320FEF7C6FFC820FEF7C0FF0020FEF7CC
:10367000C0FF2520FEF7BDFF2120FEF7BAFF052081
:10368000FEF7B7FF0020FEF7B4FF0A20FEF7B1FFF8
:103690006520FEF7AEFF2520FEF7ABFF7720FEF793
:1036A000A8FF5020FEF7A5FF0F20FEF7A2FF002085
:1036B000FEF79FFFF820FEF799FF0120FEF799FF24
:1036C000FE20FEF793FF0020FEF793FF022000E0AC
:1036D00035E0FEF78EFF2020FEF788FF3620FEF74C
:1036E00085FF0820FEF785FF3A20FEF77FFF552073
:1036F000FEF77FFF2B20FEF779FF0020FEF779FF12
:103700000020FEF776FF0120FEF773FF3F20FEF753
:1037100070FF2A20FEF76AFF0020FEF76AFF0020F4
:10372000FEF767FF0120FEF764FFDF20FEF761FF71
:10373000782006F0B6FD2920FEF758FF41E7FE4845
:10374000808845F21031884240F07C87ED20FEF7FA
:103750004DFF0120FEF74DFFFE20FEF74AFFEE2051
:10376000FEF744FFDE20FEF744FF2120FEF741FF75
:10377000F120FEF73BFF0120FEF73BFFDF20FEF7C5
:1037800035FF1020FEF735FFC420FEF72FFF8F20F6
:10379000FEF72FFFC620FEF729FF0020FEF729FFC6
:1037A000E220FEF726FFE220FEF723FFE220FEF7ED
:1037B00020FFBF20FEF71AFFAA20FEF71AFFB02055
:1037C000FEF714FF0D20FEF714FF0020FEF711FF97
:1037D0000D20FEF70EFF0020FEF70BFF1120FEF775
:1037E00008FF0020FEF705FF1920FEF702FF00206A
:1037F000FEF7FFFE2120FEF7FCFE0020FEF7F9FE9B
:103800002D20FEF7F6FE0020FEF7F3FE3D20FEF72A
:10381000F0FE0020FEF7EDFE5D20FEF7EAFE002040
:10382000FEF7E7FE5D20FEF7E4FE0020FEF7E1FE76
:10383000B120FEF7DBFE8020FEF7DBFE0020FEF766
:10384000D8FE8B20FEF7D5FE0020FEF7D2FE962094
:10385000FEF7CFFE0020FEF7CCFEB220FEF7C6FE3C
:103860000020FEF7C6FE0020FEF7C3FE0220FEF792
:10387000C0FE0020FEF7BDFE0320FEF7BAFE0020CA
:10388000FEF7B7FEB320FEF7B1FE0020FEF7B1FE53
:103890000020FEF7AEFE0020FEF7ABFE0020FEF794
:1038A000A8FE0020FEF7A5FE0020FEF7A2FE0020E5
:1038B000FEF79FFE0020FEF79CFE0020FEF799FE1B
:1038C0000020FEF796FE0020FEF793FE0020FEF794
:1038D00090FE0020FEF78DFE0020FEF78AFE0020FD
:1038E000FEF787FE0020FEF784FE0020FEF781FE33
:1038F0000020FEF77EFE0020FEF77BFE0020FEF794
:1039000078FE0020FEF775FE0020FEF772FE002014
:10391000FEF76FFE0020FEF76CFEB420FEF766FE99
:103920008B20FEF766FE0020FEF763FE9620FEF772
:1039300060FE0020FEF75DFEA120FEF75AFE00208B
:10394000FEF757FEB520FEF751FE0220FEF751FEAE
:103950000020FEF74EFE0320FEF74BFE0020FEF790
:1039600048FE0420FEF745FE0020FEF742FEB6208A
:10397000FEF73CFE0020FEF73CFE0020FEF739FE7D
:10398000B720FEF733FE0020FEF733FE0020FEF7DF
:1039900030FE3F20FEF72DFE0020FEF72AFE5E20BF
:1039A000FEF727FE0020FEF724FE6420FEF721FE2E
:1039B0000020FEF71EFE8C20FEF71BFE0020FEF707
:1039C00018FEAC20FEF715FE0020FEF712FEDC20EC
:1039D000FEF70FFE0020FEF70CFE7020FEF709FE3A
:1039E0000020FEF706FE9020FEF703FE0020FEF703
:1039F00000FEEB20FEF7FDFD0020FEF7FAFDDC20C7
:103A0000FEF7F7FD0020FEF7F4FDB820FEF7EEFD0F
:103A10000020FEF7EEFD0020FEF7EBFD0020FEF794
:103A2000E8FD0020FEF7E5FD0020FEF7E2FD0020A6
:103A3000FEF7DFFD0020FEF7DCFD0020FEF7D9FDDC
:103A4000BA20FEF7D3FD2420FEF7D3FD0020FEF7B9
:103A5000D0FD0020FEF7CDFD0020FEF7CAFDC120FD
:103A6000FEF7C4FD2020FEF7C4FD0020FEF7C1FDD7
:103A70005420FEF7BEFD0020FEF7BBFDFF20FEF741
:103A8000B8FD0020FEF7B5FDC220FEF7AFFD0A200D
:103A9000FEF7AFFD0020FEF7ACFD0420FEF7A9FD08
:103AA0000020FEF7A6FDC320FEF7A0FD3C20FEF798
:103AB000A0FD0020FEF79DFD3A20FEF79AFD0020B4
:103AC000FEF797FD3920FEF794FD0020FEF791FDEB
:103AD0003720FEF78EFD0020FEF78BFD3C20FEF721
:103AE00088FD0020FEF785FD3620FEF782FD0020D0
:103AF000FEF77FFD3220FEF77CFD0020FEF779FD0A
:103B00002F20FEF776FD0020FEF773FD2C20FEF738
:103B100070FD0020FEF76DFD2920FEF76AFD0020F4
:103B2000FEF767FD2620FEF764FD0020FEF761FD2D
:103B30002420FEF75EFD01E0780300200020FEF760
:103B400058FD2420FEF755FD0020FEF752FD2320EE
:103B5000FEF74FFD0020FEF74CFD3C20FEF749FD2F
:103B60000020FEF746FD3620FEF743FD0020FEF75D
:103B700040FD3220FEF73DFD0020FEF73AFD2F20EC
:103B8000FEF737FD0020FEF734FD2C20FEF731FD57
:103B90000020FEF72EFD2920FEF72BFD0020FEF76A
:103BA00028FD2620FEF725FD0020FEF722FD24201B
:103BB000FEF71FFD0020FEF71CFD2420FEF719FD77
:103BC0000020FEF716FD2320FEF713FD0020FEF770
:103BD00010FDC420FEF70AFD6220FEF70AFD00205A
:103BE000FEF707FD0520FEF704FD0020FEF701FDAE
:103BF0008420FEF7FEFC0020FEF7FBFCF020FEF721
:103C0000F8FC0020FEF7F5FC1820FEF7F2FC00207F
:103C1000FEF7EFFCA420FEF7ECFC0020FEF7E9FC29
:103C20001820FEF7E6FC0020FEF7E3FC5020FEF72C
:103C3000E0FC0020FEF7DDFC0C20FEF7DAFC0020A3
:103C4000FEF7D7FC1720FEF7D4FC0020FEF7D1FCCE
:103C50009520FEF7CEFC0020FEF7CBFCF320FEF70C
:103C6000C8FC0020FEF7C5FCE620FEF7C2FC0020E1
:103C7000FEF7BFFCC520FEF7B9FC3220FEF7B9FC09
:103C80000020FEF7B6FC4420FEF7B3FC0020FEF750
:103C9000B0FC6520FEF7ADFC0020FEF7AAFC762004
:103CA000FEF7A7FC0020FEF7A4FC8820FEF7A1FC8D
:103CB0000020FEF79EFCC620FEF798FC2020FEF7B1
:103CC00098FC0020FEF795FC1720FEF792FC0020E0
:103CD000FEF78FFC0120FEF78CFC0020FEF789FC2C
:103CE000C720FEF783FC0020FEF783FC0020FEF7D0
:103CF00080FC0020FEF77DFC0020FEF77AFCC82047
:103D0000FEF774FC0020FEF774FC0020FEF771FC47
:103D10000020FEF76EFC0020FEF76BFCC920FEF7CA
:103D200065FC0020FEF765FC0020FEF762FC002029
:103D3000FEF75FFC0020FEF75CFC0020FEF759FC5C
:103D40000020FEF756FC0020FEF753FC0020FEF793
:103D500050FC0020FEF74DFC0020FEF74AFC00203E
:103D6000FEF747FC0020FEF744FC0020FEF741FC74
:103D70000020FEF73EFC0020FEF73BFC0020FEF793
:103D800038FCE020FEF732FC1620FEF732FC002063
:103D9000FEF72FFC1C20FEF72CFC0020FEF729FC70
:103DA0002120FEF726FC0020FEF723FC3620FEF73C
:103DB00020FC0020FEF71DFC4620FEF71AFC002028
:103DC000FEF717FC5220FEF714FC0020FEF711FC52
:103DD0006420FEF70EFC0020FEF70BFC7A20FEF7B5
:103DE00008FC0020FEF705FC8B20FEF702FC0020FB
:103DF000FEF7FFFB9920FEF7FCFB0020FEF7F9FB26
:103E0000A820FEF7F6FB0020FEF7F3FBB920FEF733
:103E1000F0FB0020FEF7EDFBC420FEF7EAFB0020DC
:103E2000FEF7E7FBCA20FEF7E4FB0020FEF7E1FB0C
:103E3000D220FEF7DEFB0020FEF7DBFBD920FEF7E9
:103E4000D8FB0020FEF7D5FBE020FEF7D2FB0020D8
:103E5000FEF7CFFBF320FEF7CCFB0020FEF7C9FBFB
:103E6000E120FEF7C3FB1620FEF7C3FB0020FEF7A0
:103E7000C0FB1C20FEF7BDFB0020FEF7BAFB222092
:103E8000FEF7B7FB0020FEF7B4FB3620FEF7B1FBD0
:103E90000020FEF7AEFB4520FEF7ABFB0020FEF74F
:103EA000A8FB5220FEF7A5FB0020FEF7A2FB642032
:103EB000FEF79FFB0020FEF79CFB7A20FEF799FBA4
:103EC0000020FEF796FB8B20FEF793FB0020FEF709
:103ED00090FB9920FEF78DFB0020FEF78AFBA820BF
:103EE000FEF787FB0020FEF784FBB920FEF781FB7D
:103EF0000020FEF77EFBC420FEF77BFB0020FEF7D0
:103F000078FBCA20FEF775FB0020FEF772FBD2207B
:103F1000FEF76FFB0020FEF76CFBD820FEF769FB75
:103F20000020FEF766FBE020FEF763FB0020FEF7B3
:103F300060FBF320FEF75DFB0020FEF75AFBE2205A
:103F4000FEF754FB0520FEF754FB0020FEF751FB63
:103F50000B20FEF74EFB0020FEF74BFB1B20FEF76D
:103F600048FB0020FEF745FB3420FEF742FB002013
:103F7000FEF73FFB4420FEF73CFB0020FEF739FB39
:103F80004F20FEF736FB0020FEF733FB6120FEF7E3
:103F900030FB0020FEF72DFB7920FEF72AFB0020E6
:103FA000FEF727FB8820FEF724FB0020FEF721FB0D
:103FB0009720FEF71EFB0020FEF71BFBA620FEF756
:103FC00018FB0020FEF715FBB720FEF712FB0020C0
:103FD000FEF70FFBC220FEF70CFB0020FEF709FBEB
:103FE000C720FEF706FB0020FEF703FBD120FEF7FB
:103FF00000FB0020FEF7FDFAD620FEF7FAFA0020BB
:10400000FEF7F7FADD20FEF7F4FA0020FEF7F1FAEA
:10401000F320FEF7EEFA0020FEF7EBFAE320FEF7BE
:10402000E5FA0520FEF7E5FA0020FEF7E2FA0A209D
:10403000FEF7DFFA0020FEF7DCFA1C20FEF7D9FAC3
:104040000020FEF7D6FA3320FEF7D3FA0020FEF761
:10405000D0FA4420FEF7CDFA0020FEF7CAFA50202D
:10406000FEF7C7FA0020FEF7C4FA6220FEF7C1FA95
:104070000020FEF7BEFA7820FEF7BBFA0020FEF71C
:10408000B8FA8820FEF7B5FA0020FEF7B2FA9720BA
:10409000FEF7AFFA0020FEF7ACFAA620FEF7A9FA69
:1040A0000020FEF7A6FAB720FEF7A3FA0020FEF7DD
:1040B000A0FAC220FEF79DFA0020FEF79AFAC72068
:1040C000FEF797FA0020FEF794FAD120FEF791FA56
:1040D0000020FEF78EFAD520FEF78BFA0020FEF7BF
:1040E00088FADD20FEF785FA0020FEF782FAF32039
:1040F000FEF77FFA0020FEF77CFAE420FEF776FA5E
:104100000120FEF776FA0020FEF773FA0120FEF791
:1041100070FA0020FEF76DFA0220FEF76AFA00201E
:10412000FEF767FA2A20FEF764FA0020FEF761FA2C
:104130003C20FEF75EFA0020FEF75BFA4B20FEF70C
:1041400058FA0020FEF755FA5D20FEF752FA0020DB
:10415000FEF74FFA7420FEF74CFA0020FEF749FAFA
:104160008420FEF746FA0020FEF743FA9320FEF77C
:1041700040FA0020FEF73DFAA220FEF73AFA0020AE
:10418000FEF737FAB320FEF734FA0020FEF731FAD3
:10419000BE20FEF72EFA0020FEF72BFAC420FEF711
:1041A00028FA0020FEF725FACD20FEF722FA00209B
:1041B000FEF71FFAD320FEF71CFA0020FEF719FACB
:1041C000DD20FEF716FA0020FEF713FAF320FEF7C3
:1041D00010FA0020FEF70DFAE520FEF707FA00209E
:1041E000FEF707FA0020FEF704FA0020FEF701FAB6
:1041F0000020FEF7FEF90220FEF7FBF90020FEF793
:10420000F8F92920FEF7F5F90020FEF7F2F93C2035
:10421000FEF7EFF90020FEF7ECF94B20FEF7E9F985
:104220000020FEF7E6F95D20FEF7E3F90020FEF737
:10423000E0F97420FEF7DDF90020FEF7DAF98420BA
:10424000FEF7D7F90020FEF7D4F99320FEF7D1F955
:104250000020FEF7CEF9A220FEF7CBF90020FEF7F2
:10426000C8F9B320FEF7C5F90020FEF7C2F9BE2059
:10427000FEF7BFF90020FEF7BCF9C420FEF7B9F93C
:104280000020FEF7B6F9CD20FEF7B3F90020FEF7C7
:10429000B0F9D320FEF7ADF90020FEF7AAF9DC2033
:1042A000FEF7A7F90020FEF7A4F9F320FEF7A1F925
:1042B0000020FEF79EF9E620FEF798F91120FEF7A0
:1042C00098F90020FEF795F93420FEF792F90020C6
:1042D000FEF78FF95620FEF78CF90020FEF789F9DA
:1042E0007620FEF786F90020FEF783F97720FEF7A7
:1042F00080F90020FEF77DF96620FEF77AF90020AC
:10430000FEF777F98820FEF774F90020FEF771F9BF
:104310009920FEF76EF90020FEF76BF9BB20FEF73F
:1043200068F90020FEF765F99920FEF762F9002090
:10433000FEF75FF96620FEF75CF90020FEF759F9F9
:104340005520FEF756F90020FEF753F95520FEF7E9
:1043500050F90020FEF74DF94520FEF74AF90020FC
:10436000FEF747F94320FEF744F90020FEF741F934
:104370004420FEF73EF90020FEF73BF9E720FEF768
:1043800035F93220FEF735F90020FEF732F95520D5
:10439000FEF72FF90020FEF72CF97620FEF729F919
:1043A0000020FEF726F96620FEF723F90020FEF72D
:1043B00020F96720FEF71DF90020FEF71AF96720A3
:1043C000FEF717F90020FEF714F98720FEF711F920
:1043D0000020FEF70EF99920FEF70BF90020FEF7FA
:1043E00008F9BB20FEF705F90020FEF702F9992035
:1043F000FEF7FFF80020FEF7FCF87720FEF7F9F84B
:104400000020FEF7F6F84420FEF7F3F80020FEF750
:10441000F0F85620FEF7EDF80020FEF7EAF823202A
:10442000FEF7E7F80020FEF7E4F83320FEF7E1F8A6
:104430000020FEF7DEF84520FEF7DBF80020FEF74F
:10444000D8F8E820FEF7D2F80020FEF7D2F80020D6
:10445000FEF7CFF89920FEF7CCF80020FEF7C9F858
:104460008720FEF7C6F80020FEF7C3F88820FEF785
:10447000C0F80020FEF7BDF87720FEF7BAF800205C
:10448000FEF7B7F86620FEF7B4F80020FEF7B1F8A3
:104490008820FEF7AEF80020FEF7ABF8AA20FEF762
:1044A000A8F80020FEF7A5F8BB20FEF7A2F8002030
:1044B000FEF79FF89920FEF79CF80020FEF799F888
:1044C0006620FEF796F80020FEF793F85520FEF7D9
:1044D00090F80020FEF78DF85520FEF78AF80020AE
:1044E000FEF787F84420FEF784F80020FEF781F8F5
:1044F0004420FEF77EF80020FEF77BF85520FEF7FB
:1045000078F80020FEF775F8E920FEF76FF8AA208A
:10451000FEF76FF80020FEF76CF80020FEF769F850
:104520000020FEF766F80020FEF760F8AA20FEF7EC
:1045300060F8CF20FEF75AF80020FEF75AF8002066
:10454000FEF757F80020FEF754F80020FEF751F868
:104550000020FEF74EF80020FEF74BF80020FEF793
:1045600048F80020FEF745F80020FEF742F800204A
:10457000FEF73FF80020FEF73CF80020FEF739F880
:104580000020FEF736F80020FEF733F80020FEF793
:1045900030F80020FEF72DF80020FEF72AF8F02072
:1045A000FEF724F80020FEF724F85020FEF721F84B
:1045B0000020FEF71EF80020FEF71BF80020FEF793
:1045C00018F8F320FEF712F80020FEF712F8F92091
:1045D000FEF70CF80620FEF70CF81020FEF709F89D
:1045E0002920FEF706F80020FEF703F83A20FDF731
:1045F000FDFF5520FDF7FDFF1120FDF7F7FF6420BB
:1046000005F04FFE2920FDF7F1FF3520FDF7EEFF05
:104610000020FDF7EEFF5120FDF7E8FFFF20FDF73A
:10462000E8FF5320FDF7E2FF2C20FDF7E2FF5520C5
:10463000FDF7DCFF8220FDF7DCFF2C20FDF7D6FF25
:1046400002F0EBB8FE48808845F2105188427DD1D7
:1046500055214FF47040FDF7D4FFAA214FF201001D
:10466000FDF7CFFF52214FF20200FDF7CAFF0821EC
:104670004FF20300FDF7C5FF01214FF20400FDF7E3
:10468000C0FF0D214FF43040FDF7BBFF0D214BF271
:104690000100FDF7B6FF0D214BF20200FDF7B1FF5F
:1046A00034214FF43640FDF7ACFF34214BF201606A
:1046B000FDF7A7FF34214BF20260FDF7A2FF0D21A9
:1046C0004FF43140FDF79DFF0D214BF20110FDF736
:1046D00098FF0D214BF20210FDF793FF34214FF4A8
:1046E0003740FDF78EFF34214BF20170FDF789FF53
:1046F00034214BF20270FDF784FF00214FF4324069
:10470000FDF77FFF00214BF20120FDF77AFF00212A
:104710004BF20220FDF775FF24214FF43840FDF7DE
:1047200070FF24214BF60100FDF76BFF24214BF6AF
:104730000200FDF766FF01214FF43F40FDF761FFE6
:104740000F214FF43340FDF75CFF00E0FDE30F2144
:104750004BF20130FDF755FF0F214BF20230FDF710
:1047600050FF34214FF43940FDF74BFF34214BF615
:104770000110FDF746FF34214BF60210FDF741FF13
:1047800008214FF43540FDF73CFF08214BF2015062
:10479000FDF737FF08214BF20250FDF732FF0321EE
:1047A0004FF44240FDF72DFF24214FF43A40FDF72E
:1047B00028FF24214BF60120FDF723FF24214BF68F
:1047C0000220FDF71EFF00214FF43C40FDF719FFCA
:1047D00078214BF60140FDF714FF00214BF6024013
:1047E000FDF70FFF00214FF43D40FDF70AFF782150
:1047F0004BF60150FDF705FF00214BF60250FDF787
:1048000000FF00214FF43E40FDF7FBFE64214BF614
:104810000160FDF7F6FE00214FF45140FDF7F1FE77
:1048200033214DF20110FDF7ECFE00214DF2021094
:10483000FDF7E7FE34214DF20310FDF7E2FE002103
:104840004DF20410FDF7DDFE3A214DF20510FDF7A3
:10485000D8FE00214DF20610FDF7D3FE4A214DF29D
:104860000710FDF7CEFE00214DF20810FDF7C9FE3E
:104870005C214DF20910FDF7C4FE00214DF20A1033
:10488000FDF7BFFE81214DF20B10FDF7BAFE0021AE
:104890004DF20C10FDF7B5FEA6214DF20D10FDF7FF
:1048A000B0FE00214DF20E10FDF7ABFEE5214DF2FA
:1048B0000F10FDF7A6FE01214DF21010FDF7A1FE2D
:1048C00013214DF21110FDF79CFE01214DF2121043
:1048D000FDF797FE54214DF21310FDF792FE0121D2
:1048E0004DF21410FDF78DFE82214DF21510FDF7EB
:1048F00088FE01214DF21610FDF783FECA214DF20C
:104900001710FDF77EFE02214DF21810FDF779FE1B
:1049100000214DF21910FDF774FE02214DF21A101C
:10492000FDF76FFE01214DF21B10FDF76AFE02211B
:104930004DF21C10FDF765FE34214DF21D10FDF700
:1049400060FE02214DF21E10FDF75BFE67214DF265
:104950001F10FDF756FE02214DF22010FDF751FE0B
:1049600084214DF22110FDF74CFE02214DF2221060
:10497000FDF747FEA4214DF22310FDF742FE022170
:104980004DF22410FDF73DFEB7214DF22510FDF745
:1049900038FE02214DF22610FDF733FECF214DF2F5
:1049A0002710FDF72EFE02214DF22810FDF729FEFB
:1049B000DE214DF22910FDF724FE02214DF22A10CE
:1049C000FDF71FFEF2214DF22B10FDF71AFE02211A
:1049D0004DF22C10FDF715FEFE214DF22D10FDF7C6
:1049E00010FE03214DF22E10FDF70BFE10214DF2AB
:1049F0002F10FDF706FE03214DF23010FDF701FEEA
:104A000033214DF23110FDF7FCFD03214DF2321040
:104A1000FDF7F7FD6D214DF23310FDF7F2FD00219A
:104A20004FF45240FDF7EDFD33214DF20120FDF72B
:104A3000E8FD00214DF20220FDF7E3FD342101E005
:104A4000780300204DF20320FDF7DBFD00214DF23D
:104A50000420FDF7D6FD3A214DF20520FDF7D1FDEA
:104A600000214DF20620FDF7CCFD4A214DF2072032
:104A7000FDF7C7FD00214DF20820FDF7C2FD5C21C6
:104A80004DF20920FDF7BDFD00214DF20A20FDF792
:104A9000B8FD81214DF20B20FDF7B3FD00214DF251
:104AA0000C20FDF7AEFDA6214DF20D20FDF7A9FD6E
:104AB00000214DF20E20FDF7A4FDE5214DF20F205F
:104AC000FDF79FFD01214DF21020FDF79AFD132106
:104AD0004DF21120FDF795FD01214DF21220FDF759
:104AE00090FD54214DF21320FDF78BFD01214DF275
:104AF0001420FDF786FD82214DF21520FDF781FD82
:104B000001214DF21620FDF77CFDCA214DF2172040
:104B1000FDF777FD02214DF21820FDF772FD00210F
:104B20004DF21920FDF76DFD02214DF21A20FDF71F
:104B300068FD01214DF21B20FDF763FD02214DF2BE
:104B40001C20FDF75EFD34214DF21D20FDF759FDBF
:104B500002214DF21E20FDF754FD67214DF21F206A
:104B6000FDF74FFD02214DF22020FDF74AFD842183
:104B70004DF22120FDF745FD02214DF22220FDF7E7
:104B800040FDA4214DF22320FDF73BFD02214DF213
:104B90002420FDF736FDB7214DF22520FDF731FD2C
:104BA00002214DF22620FDF72CFDCF214DF22720CA
:104BB000FDF727FD02214DF22820FDF722FDDE2121
:104BC0004DF22920FDF71DFD02214DF22A20FDF7AF
:104BD00018FDF2214DF22B20FDF713FD02214DF2BD
:104BE0002C20FDF70EFDFE214DF22D20FDF709FDD5
:104BF00003214DF22E20FDF704FD10214DF22F2050
:104C0000FDF7FFFC03214DF23020FDF7FAFC3321C4
:104C10004DF23120FDF7F5FC03214DF23220FDF776
:104C2000F0FC6D214DF23320FDF7EBFC00214FF439
:104C30005340FDF7E6FC33214DF20130FDF7E1FC76
:104C400000214DF20230FDF7DCFC34214DF203303F
:104C5000FDF7D7FC00214DF20430FDF7D2FC3A21DC
:104C60004DF20530FDF7CDFC00214DF20630FDF789
:104C7000C8FC4A214DF20730FDF7C3FC00214DF27C
:104C80000830FDF7BEFC5C214DF20930FDF7B9FCA0
:104C900000214DF20A30FDF7B4FC81214DF20B30BA
:104CA000FDF7AFFC00214DF20C30FDF7AAFCA62168
:104CB0004DF20D30FDF7A5FC00214DF20E30FDF751
:104CC000A0FCE5214DF20F30FDF79BFC01214DF2D8
:104CD0001030FDF796FC13214DF21130FDF791FCD9
:104CE00001214DF21230FDF78CFC54214DF21330AE
:104CF000FDF787FC01214DF21430FDF782FC822183
:104D00004DF21530FDF77DFC01214DF21630FDF717
:104D100078FCCA214DF21730FDF773FC02214DF2E9
:104D20001830FDF76EFC00214DF21930FDF769FCDB
:104D300002214DF21A30FDF764FC01214DF21B30C7
:104D4000FDF75FFC02214DF21C30FDF75AFC3421C7
:104D50004DF21D30FDF755FC02214DF21E30FDF7DE
:104D600050FC67214DF21F30FDF74BFC02214DF244
:104D70002030FDF746FC84214DF22130FDF741FC47
:104D800002214DF22230FDF73CFCA4214DF22330EC
:104D9000FDF737FC02214DF22430FDF732FCB7213C
:104DA0004DF22530FDF72DFC02214DF22630FDF7A6
:104DB00028FCCF214DF22730FDF723FC02214DF2D4
:104DC0002830FDF71EFCDE214DF22930FDF719FCDD
:104DD00002214DF22A30FDF714FCF2214DF22B3066
:104DE000FDF70FFC02214DF22C30FDF70AFCFE21ED
:104DF0004DF22D30FDF705FC03214DF22E30FDF76D
:104E000000FC10214DF22F30FDF7FBFB03214DF28A
:104E10003030FDF7F6FB33214DF23130FDF7F1FB79
:104E200003214DF23230FDF7ECFB6D214DF23330B2
:104E3000FDF7E7FB00214FF45440FDF7E2FB33217F
:104E40004DF20140FDF7DDFB00214DF20240FDF780
:104E5000D8FB34214DF20340FDF7D3FB00214DF286
:104E60000440FDF7CEFB3A214DF20540FDF7C9FBAA
:104E700000214DF20640FDF7C4FB4A214DF20740E8
:104E8000FDF7BFFB00214DF20840FDF7BAFB5C21A6
:104E90004DF20940FDF7B5FB00214DF20A40FDF748
:104EA000B0FB81214DF20B40FDF7ABFB00214DF231
:104EB0000C40FDF7A6FBA6214DF20D40FDF7A1FB2E
:104EC00000214DF20E40FDF79CFBE5214DF20F4015
:104ED000FDF797FB01214DF21040FDF792FB1321E6
:104EE0004DF21140FDF78DFB01214DF21240FDF70F
:104EF00088FB54214DF21340FDF783FB01214DF255
:104F00001440FDF77EFB82214DF21540FDF779FB41
:104F100001214DF21640FDF774FBCA214DF21740F6
:104F2000FDF76FFB02214DF21840FDF76AFB0021EF
:104F30004DF21940FDF765FB02214DF21A40FDF7D5
:104F400060FB01214DF21B4000E006E3FDF759FB39
:104F500002214DF21C40FDF754FB34214DF21D405F
:104F6000FDF74FFB02214DF21E40FDF74AFB672182
:104F70004DF21F40FDF745FB02214DF22040FDF7A9
:104F800040FB84214DF22140FDF73BFB02214DF215
:104F90002240FDF736FBA4214DF22340FDF731FB03
:104FA00002214DF22440FDF72CFBB7214DF22540A4
:104FB000FDF727FB02214DF22640FDF722FBCF2112
:104FC0004DF22740FDF71DFB02214DF22840FDF771
:104FD00018FBDE214DF22940FDF713FB02214DF2B3
:104FE0002A40FDF70EFBF2214DF22B40FDF709FBA5
:104FF00002214DF22C40FDF704FBFE214DF22D4025
:10500000FDF7FFFA03214DF22E40FDF7FAFA1021C9
:105010004DF22F40FDF7F5FA03214DF23040FDF738
:10502000F0FA33214DF23140FDF7EBFA03214DF256
:105030003240FDF7E6FA6D214DF23340FDF7E1FA1B
:1050400000214FF45540FDF7DCFA33214DF20150B9
:10505000FDF7D7FA00214DF20250FDF7D2FA3421C4
:105060004DF20350FDF7CDFA00214DF20450FDF74B
:10507000C8FA3A214DF20550FDF7C3FA00214DF26E
:105080000650FDF7BEFA4A214DF20750FDF7B9FA76
:1050900000214DF20850FDF7B4FA5C214DF20950A1
:1050A000FDF7AFFA00214DF20A50FDF7AAFA81216F
:1050B0004DF20B50FDF7A5FA00214DF20C50FDF713
:1050C000A0FAA6214DF20D50FDF79BFA00214DF2FA
:1050D0000E50FDF796FAE5214DF20F50FDF791FACB
:1050E00001214DF21050FDF78CFA13214DF21150B1
:1050F000FDF787FA01214DF21250FDF782FA542193
:105100004DF21350FDF77DFA01214DF21450FDF7D9
:1051100078FA82214DF21550FDF773FA01214DF214
:105120001650FDF76EFACA214DF21750FDF769FAD5
:1051300002214DF21850FDF764FA00214DF219508A
:10514000FDF75FFA02214DF21A50FDF75AFA0121DC
:105150004DF21B50FDF755FA02214DF21C50FDF7A0
:1051600050FA34214DF21D50FDF74BFA02214DF259
:105170001E50FDF746FA67214DF21F50FDF741FA28
:1051800002214DF22050FDF73CFA84214DF22150CE
:10519000FDF737FA02214DF22250FDF732FAA42131
:1051A0004DF22350FDF72DFA02214DF22450FDF768
:1051B00028FAB7214DF22550FDF723FA02214DF2CE
:1051C0002650FDF71EFACF214DF22750FDF719FAB0
:1051D00002214DF22850FDF714FADE214DF229503C
:1051E000FDF70FFA02214DF22A50FDF70AFAF221DB
:1051F0004DF22B50FDF705FA02214DF22C50FDF730
:1052000000FAFE214DF22D50FDF7FBF903214DF27E
:105210002E50FDF7F6F910214DF22F50FDF7F1F960
:1052200003214DF23050FDF7ECF933214DF23150AE
:10523000FDF7E7F903214DF23250FDF7E2F96D2158
:105240004DF23350FDF7DDF900214FF45640FDF7E4
:10525000D8F933214DF20160FDF7D3F900214DF269
:105260000260FDF7CEF934214DF20360FDF7C9F974
:1052700000214DF20460FDF7C4F93A214DF20560BA
:10528000FDF7BFF900214DF20660FDF7BAF94A219A
:105290004DF20760FDF7B5F900214DF20860FDF70A
:1052A000B0F95C214DF20960FDF7ABF900214DF238
:1052B0000A60FDF7A6F981214DF20B60FDF7A1F917
:1052C00000214DF20C60FDF79CF9A6214DF20D6016
:1052D000FDF797F900214DF20E60FDF792F9E521F7
:1052E0004DF20F60FDF78DF901214DF21060FDF7D1
:1052F00088F913214DF21160FDF783F901214DF278
:105300001260FDF77EF954214DF21360FDF779F933
:1053100001214DF21460FDF774F982214DF2156000
:10532000FDF76FF901214DF21660FDF76AF9CA2108
:105330004DF21760FDF765F902214DF21860FDF797
:1053400060F900214DF21960FDF75BF902214DF281
:105350001A60FDF756F901214DF21B60FDF751F976
:1053600002214DF21C60FDF74CF934214DF21D6015
:10537000FDF747F902214DF21E60FDF742F9672162
:105380004DF21F60FDF73DF902214DF22060FDF75F
:1053900038F984214DF22160FDF733F902214DF2F5
:1053A0002260FDF72EF9A4214DF22360FDF729F9C3
:1053B00002214DF22460FDF724F9B7214DF225605A
:1053C000FDF71FF902214DF22660FDF71AF9CF21F2
:1053D0004DF22760FDF715F902214DF22860FDF727
:1053E00010F9DE214DF22960FDF70BF902214DF293
:1053F0002A60FDF706F9F2214DF22B60FDF701F965
:1054000002214DF22C60FDF7FCF8FE214DF22D60DB
:10541000FDF7F7F803214DF22E60FDF7F2F81021A9
:105420004DF22F60FDF7EDF803214DF23060FDF7EE
:10543000E8F833214DF23160FDF7E3F803214DF236
:105440003260FDF7DEF86D214DF23360FDF7D9F8DB
:1054500055214FF47040FDF7D4F8AA214FF2010016
:10546000FDF7CFF852214FF20200FDF7CAF80821EC
:105470004FF20300FDF7C5F800214FF20400FDF7DD
:10548000C0F8CC214FF43140FDF7BBF800214BF2BE
:105490000110FDF7B6F805214FF43640FDF7B1F8DD
:1054A00070214FF43740FDF7ACF870214BF20170DA
:1054B000FDF7A7F801214FF43840FDF7A2F80321CA
:1054C0004BF60100FDF79DF803214BF60200FDF7B6
:1054D00098F803214BF60300FDF793F802214FF4EF
:1054E0003C40FDF78EF800214BF60140FDF789F8AE
:1054F00000214BF60240FDF784F8D0214FF44940DB
:10550000FDF77FF802214CF60110FDF77AF85021E3
:105510004CF60210FDF775F850214CF60310FDF71C
:1055200070F850214CF60410FDF76BF800214FF491
:105530005450FDF766F855214FF46850FDF761F8B7
:105540004FF48850FDF752F8782004F086FE4FF4AF
:105550002450FDF74BF801F060B9FE48808849F20D
:10556000253188427ED147F6F001E520FDF749F864
:105570004FF480710120FDF744F84FF4E061022000
:10558000FDF73FF841F230010320FDF73AF8002122
:105590000420FDF736F840F202210820FDF731F82B
:1055A00000210920FDF72DF800210A20FDF729F838
:1055B00000210C20FDF725F800210D20FDF721F832
:1055C00000210F20FDF71DF800211020FDF719F82C
:1055D00007211120FDF715F800211220FDF711F821
:1055E00000211320FDF70DF800210720FDF709F831
:1055F00041F290611020FDF704F840F227211120BC
:10560000FCF7FFFF9D211220FCF7FBFF4FF4C85170
:105610001320FCF7F6FF25212920FCF7F2FF0D21CE
:105620002B20FCF7EEFF07213020FCF7EAFF40F2C9
:1056300003313120FCF7E5FF03213220FCF7E1FFC5
:1056400040F206213520FCF7DCFF08213620FCF76C
:10565000D8FF40F206413720FCF7D3FF4FF44171E9
:10566000382000E057E0FCF7CCFF07213920FCF799
:10567000C8FF40F202613C20FCF7C3FF08213D2037
:10568000FCF7BFFF00215020FCF7BBFFEF215120AA
:10569000FCF7B7FF00215220FCF7B3FF40F23F11A7
:1056A0005320FCF7AEFF4FF427416020FCF7A9FF21
:1056B00001216120FCF7A5FF00216A20FCF7A1FF72
:1056C00000218020FCF79DFF00218120FCF799FF3D
:1056D00000218220FCF795FF00218320FCF791FF39
:1056E00000218420FCF78DFF00218520FCF789FF35
:1056F00010219020FCF785FF4FF4C0619220FCF749
:1057000080FF40F233110720FCF77BFF22210020AD
:10571000FCF777FF1FE78F48808849F228318842DD
:105720007ED141F28F01EC20FCF76BFF41F2342176
:10573000EF20FCF766FF4FF480710120FCF761FF5A
:105740004FF4E0610220FCF75CFF41F230010320DE
:10575000FCF757FF00210420FCF753FF40F2022121
:105760000820FCF74EFF00210920FCF74AFF00212A
:105770000A20FCF746FF01210C20FCF742FF002124
:105780000D20FCF73EFF00210F20FCF73AFF00211F
:105790001020FCF736FF07211120FCF732FF002113
:1057A0001220FCF72EFF00211320FCF72AFF012115
:1057B0000720FCF726FF322004F073FD41F29041F0
:1057C0001020FCF71EFF40F227211120FCF719FFE3
:1057D000322004F066FD8A211220FCF712FF3220ED
:1057E00004F05FFD4FF4D0511320FCF70AFF0621AF
:1057F0002920FCF706FF0D212B20FCF702FF3220A9
:1058000004F04FFD00212020FCF7FBFE00212120A9
:10581000FCF7F7FE322004F044FD0021302000E0C8
:1058200074E0FCF7EEFE40F204613120FCF7E9FE83
:1058300040F205313220FCF7E4FE00213520FCF770
:10584000E0FE40F609413620FCF7DBFE4FF4017123
:105850003720FCF7D6FE40F201313820FCF7D1FEAC
:1058600040F207713920FCF7CCFE00213C20FCF708
:10587000C8FE40F60A213D20FCF7C3FE322004F0AA
:1058800010FD00215020FCF7BCFEEF215120FCF759
:10589000B8FE00215220FCF7B4FE40F23F11532025
:1058A000FCF7AFFE4FF427416020FCF7AAFE012170
:1058B0006120FCF7A6FE00216A20FCF7A2FE002171
:1058C0008020FCF79EFE00218120FCF79AFE00213B
:1058D0008220FCF796FE00218320FCF792FE002137
:1058E0008420FCF78EFE00218520FCF78AFE102123
:1058F0009020FCF786FE4FF4C0619220FCF781FEF9
:1059000040F233110720FCF77CFE24E61148808822
:1059100049F2203188427DD100210846FCF771FE12
:105920004FF480710120FCF76CFE4FF4E06102201F
:10593000FCF767FE41F230010320FCF762FE002114
:105940000420FCF75EFE40F202210820FCF759FE1D
:10595000002101E0780300200920FCF752FE00211D
:105960000A20FCF74EFE01210C20FCF74AFE002124
:105970000D20FCF746FE00210F20FCF742FE3220EE
:1059800004F08FFC40F201110720FCF73AFE3220B0
:1059900004F087FC4FF486511020FCF732FE0721FB
:1059A0001120FCF72EFE4FF488711220FCF729FE1F
:1059B0004FF430611320FCF724FE00212920FCF76E
:1059C00020FE44F210012B20FCF71BFE002150208A
:1059D000FCF717FEEF215120FCF713FE00215220A7
:1059E000FCF70FFE40F23F115320FCF70AFE4FF484
:1059F0001C516020FCF705FE01216120FCF701FE2F
:105A000000216A20FCF7FDFD00218020FCF7F9FD54
:105A1000002100E031E08120FCF7F3FD002182202D
:105A2000FCF7EFFD00218320FCF7EBFD0021842033
:105A3000FCF7E7FD00218520FCF7E3FD1021902015
:105A4000FCF7DFFD00219220FCF7DBFD0121932014
:105A5000FCF7D7FD4FF488719520FCF7D2FD0021AB
:105A60009720FCF7CEFD00219820FCF7CAFD40F2FC
:105A700073110720FCF7C5FD6DE5FE48808849F2EB
:105A8000313188427DD141F21401E720FCF7B9FDA4
:105A90004FF480710120FCF7B4FD4FF40071022037
:105AA000FCF7AFFD41F238010320FCF7AAFD40F2FC
:105AB00002210820FCF7A5FD00210920FCF7A1FD2B
:105AC00000210A20FCF79DFD00210C20FCF799FD28
:105AD00000210D20FCF795FD00210F20FCF791FD22
